:020000040800F2
:10000000002800209D060008C1040008C70400085D
:10001000CD040008D3040008D90400080000000043
:10002000000000000000000000000000DF040008E5
:10003000EB04000800000000F704000803050008B6
:10004000E5060008E5060008E5060008E5060008E4
:10005000E5060008E5060008E5060008E5060008D4
:10006000E5060008E5060008E5060008E5060008C4
:10007000E5060008E5060008E5060008E5060008B4
:10008000E5060008E5060008E5060008E5060008A4
:10009000E5060008E5060008E5060008E506000894
:1000A000E5060008E5060008E5060008E506000884
:1000B000E5060008E506000800000000E506000867
:1000C000E50600080000000000000000E50600084A
:1000D00000000000E5060008E5060008000000003A
:1000E000E5060008E5060008E50600080000000037
:1000F0000000000000000000000000000000000000
:0C01000000000000000000005FF808F1A3
:10010C0010B5054C237833B9044B13B10448AFF345
:10011C0000800123237010BD70000020000000003F
:10012C002C25000808B5034B1BB103490348AFF35A
:10013C00008008BD00000000740000202C25000881
:10014C0080B584B000AF00F0C9FA00F047F800F0B9
:10015C0081F80023FB600123BB6002237B6001F06C
:10016C00D3F902461C4B83FB02135910D317C91A3F
:10017C000B465B000B449B00D31AFB6001F0C4F9E7
:10018C000246154B83FB02135910D317C91A0B46A1
:10019C005B000B449B00D31ABB6001F0B5F902461F
:1001AC000D4B83FB02135910D317C91A0B465B0076
:1001BC000B449B00D31A7B6000F080F8F86800F0C9
:1001CC00C7F8B86800F0C4F8786800F0C1F84FF4CC
:1001DC00FA6000F0E5FAC2E7ABAAAA2A80B590B0A3
:1001EC0000AF07F1180328220021184601F084F90A
:1001FC003B1D00221A605A609A60DA601A61022371
:10020C00BB610123BB621023FB6200237B6307F1FC
:10021C001803184600F05EFD0346002B01D000F0D9
:10022C0011F90F237B600023BB600023FB600023CC
:10023C003B6100237B613B1D0021184600F0CAFF87
:10024C000346002B01D000F0FDF800BF4037BD463F
:10025C0080BD000080B586B000AF07F10803002216
:10026C001A605A609A60DA60124B9B69114A43F02B
:10027C00040393610F4B9B6903F004037B607B6861
:10028C0000224FF6F0710C4800F00CFD4FF6F073A5
:10029C00BB600123FB6000233B6102237B6107F100
:1002AC0008031946044800F083FB00BF1837BD460D
:1002BC0080BD00BF001002400008014080B500AFB7
:1002CC0001221021214800F0EDFC012220211F48C1
:1002DC0000F0E8FC012240211C4800F0E3FC012264
:1002EC0080211A4800F0DEFC01224FF4807117487F
:1002FC0000F0D8FC01224FF40071144800F0D2FC3D
:10030C0001224FF48061114800F0CCFC01224FF423
:10031C0000610E4800F0C6FC01224FF480510B48DE
:10032C0000F0C0FC01224FF40051084800F0BAFC68
:10033C0001224FF48041054800F0B4FC01224FF437
:10034C000041024800F0AEFC00BF80BD0008014037
:10035C0080B582B000AF78607B680B2B6AD801A2A5
:10036C0052F823F035040008290400081D04000885
:10037C001104000803040008F5030008E703000853
:10038C00D9030008CB030008BD030008AF03000825
:10039C00A103000800224FF40041294800F082FC20
:1003AC0049E000224FF48041254800F07BFC42E0FC
:1003BC0000224FF40051224800F074FC3BE0002274
:1003CC004FF480511E4800F06DFC34E000224FF4D5
:1003DC0000611B4800F066FC2DE000224FF48061A8
:1003EC00174800F05FFC26E000224FF4007114481F
:1003FC0000F058FC1FE000224FF48071104800F010
:10040C0051FC18E0002280210D4800F04BFC12E05A
:10041C00002240210A4800F045FC0CE0002220217B
:10042C00074800F03FFC06E000221021044800F0D1
:10043C0039FC00E000BF00BF0837BD4680BD00BFDF
:10044C000008014080B400AF72B600BFFEE70000A8
:10045C0080B485B000AF154B9B69144A43F001037F
:10046C009361124B9B6903F00103BB60BB680F4B9C
:10047C00DB690E4A43F08053D3610C4BDB6903F00C
:10048C0080537B607B680A4B5B68FB60FB6823F0E6
:10049C00E063FB60FB6843F08063FB60044AFB682D
:1004AC00536000BF1437BD4680BC7047001002403B
:1004BC000000014080B400AFFEE780B400AFFEE75F
:1004CC0080B400AFFEE780B400AFFEE780B400AFAD
:1004DC00FEE780B400AF00BFBD4680BC704780B45F
:1004EC0000AF00BFBD4680BC704780B400AF00BFFA
:1004FC00BD4680BC704780B500AF00F035F900BF39
:10050C0080BD80B400AF01231846BD4680BC704747
:10051C0080B582B000AF7860396000F0C3FF03464D
:10052C0016221A604FF0FF3318460837BD4680BDBF
:10053C0080B582B000AF78604FF0FF317868FFF77C
:10054C00E7FFFEE780B586B000AFF860B9607A606F
:10055C0000237B610AE0AFF300800146BB685A1CA4
:10056C00BA60CAB21A707B6901337B617A697B68A5
:10057C009A42F0DB7B6818461837BD4680BD80B5C3
:10058C0086B000AFF860B9607A6000237B6109E047
:10059C00BB685A1CBA601B781846AFF300807B69A5
:1005AC0001337B617A697B689A42F1DB7B68184680
:1005BC001837BD4680BD80B483B000AF78604FF073
:1005CC00FF3318460C37BD4680BC704780B483B0EF
:1005DC0000AF786039603B684FF400525A600023DA
:1005EC0018460C37BD4680BC704780B483B000AF52
:1005FC007860012318460C37BD4680BC704780B428
:10060C0085B000AFF860B9607A60002318461437E3
:10061C00BD4680BC7047000080B586B000AF7860E6
:10062C00144A154BD31A7B617B693B61134B1B68D6
:10063C00002B02D1114B124A1A60104B1A687B68BE
:10064C0013443A699A4207D200F02CFF03460C225D
:10065C001A604FF0FF3309E0084B1B68FB60074B37
:10066C001A687B681344054A1360FB6818461837F0
:10067C00BD4680BD00280020000400008C00002036
:10068C00B000002080B400AF00BFBD4680BC7047F6
:10069C000C480D490D4A002302E0D458C4500433D1
:1006AC00C4188C42F9D30A4A0A4C002301E01360A7
:1006BC000432A242FBD3FFF7E5FF00F0F9FEFFF78F
:1006CC003FFD70470000002070000020B826000895
:1006DC0070000020AC000020FEE7000080B500AFE9
:1006EC00084B1B68074A43F010031360032000F00B
:1006FC002BF90F2000F008F8FFF7AAFE002318468C
:10070C0080BD00BF0020024080B582B000AF786091
:10071C00124B1A68124B1B7819464FF47A73B3FBC1
:10072C00F1F3B2FBF3F3184600F035F90346002B56
:10073C0001D001230EE07B680F2B0AD800227968C8
:10074C004FF0FF3000F00BF9064A7B681360002372
:10075C0000E0012318460837BD4680BD000000208C
:10076C00080000200400002080B400AF054B1B786B
:10077C001A46054B1B681344034A136000BFBD4661
:10078C0080BC7047080000209800002080B400AFA7
:10079C00024B1B681846BD4680BC70479800002071
:1007AC0080B584B000AF7860FFF7F0FFB8607B686D
:1007BC00FB60FB68B3F1FF3F05D00A4B1B781A4670
:1007CC00FB681344FB6000BFFFF7E0FF0246BB6809
:1007DC00D31AFA689A42F7D800BF00BF1037BD464B
:1007EC0080BD00BF0800002080B485B000AF7860E9
:1007FC007B6803F00703FB600C4BDB68BB60BA68DB
:10080C004FF6FF031340BB60FB681A02BB6813432F
:10081C0043F0BF6343F40033BB60044ABB68D3604E
:10082C0000BF1437BD4680BC704700BF00ED00E030
:10083C0080B400AF044BDB681B0A03F007031846B7
:10084C00BD4680BC704700BF00ED00E080B483B0B3
:10085C0000AF03463960FB7197F90730002B0ADBB8
:10086C003B68DAB20C4997F907301201D2B20B444B
:10087C0083F800230AE03B68DAB20849FB7903F0FD
:10088C000F03043B1201D2B20B441A7600BF0C3793
:10089C00BD4680BC704700BF00E100E000ED00E009
:1008AC0080B489B000AFF860B9607A60FB6803F07F
:1008BC000703FB61FB69C3F10703042B28BF042367
:1008CC00BB61FB690433062B02D9FB69033B00E0D7
:1008DC0000237B614FF0FF32BB6902FA03F3DA436A
:1008EC00BB681A407B699A404FF0FF317B6901FA73
:1008FC0003F3D9437B680B40134318462437BD469A
:10090C0080BC704780B582B000AF78607B68013BDB
:10091C00B3F1807F01D301230FE00A4A7B68013BCE
:10092C0053600F214FF0FF30FFF790FF054B002273
:10093C009A60044B07221A60002318460837BD46FC
:10094C0080BD00BF10E000E080B582B000AF7860E1
:10095C007868FFF749FF00BF0837BD4680BD80B5FA
:10096C0086B000AF0346B9607A60FB7300237B61ED
:10097C00FFF75EFF78617A68B9687869FFF790FFD6
:10098C00024697F90F3011461846FFF75FFF00BF7C
:10099C001837BD4680BD80B582B000AF78607868EE
:1009AC00FFF7B0FF034618460837BD4680BD000070
:1009BC0080B48BB000AF7860396000237B62002379
:1009CC003B6248E101227B6A02FA03F3FB613B685C
:1009DC001B68FA691340BB61BA69FB699A4240F023
:1009EC0037813B685B68A34A93425ED0A14A93422D
:1009FC0075D8A14A934258D09F4A93426FD89F4AC8
:100A0C00934252D09D4A934269D89D4A93424CD00E
:100A1C009B4A934263D89B4A934246D0994A93424D
:100A2C005DD8122B2AD8122B59D801A252F823F0D8
:100A3C00B70A0008910A0008A30A0008E50A000892
:100A4C00EB0A0008EB0A0008EB0A0008EB0A0008A6
:100A5C00EB0A0008EB0A0008EB0A0008EB0A000896
:100A6C00EB0A0008EB0A0008EB0A0008EB0A000886
:100A7C00EB0A0008990A0008AD0A0008824A934262
:100A8C0013D02CE03B68DB683B6229E03B68DB68F9
:100A9C0004333B6224E03B68DB6808333B621FE0B5
:100AAC003B68DB680C333B621AE03B689B68002BAD
:100ABC0002D104233B6213E03B689B68012B05D1F8
:100ACC0008233B627B68FA691A6109E008233B62E0
:100ADC007B68FA695A6103E000233B6200E000BFC7
:100AEC00BB69FF2B01D87B6801E07B6804337B6119
:100AFC00BB69FF2B02D87B6A9B0002E07B6A083B38
:100B0C009B003B617B691A680F213B6901FA03F377
:100B1C00DB431A40396A3B6901FA03F31A437B69D8
:100B2C001A603B685B6803F08053002B00F09080E8
:100B3C00564B9B69554A43F001039361534B9B6998
:100B4C0003F00103BB60BB68514A7B6A9B0802330C
:100B5C0052F82330FB607B6A03F003039B000F22E7
:100B6C0002FA03F3DB43FA681340FB607B68494AE3
:100B7C0093420DD07B68484A934207D07B68474A22
:100B8C00934201D1022304E0032302E0012300E09D
:100B9C0000237A6A02F0030292009340FA6813432E
:100BAC00FB603B497B6A9B080233FA6841F82320BF
:100BBC003B685B6803F48033002B06D0384B1A6813
:100BCC003749BB6913430B6006E0354B1A68BB69A8
:100BDC00DB43334913400B603B685B6803F4003321
:100BEC00002B06D02E4B5A682D49BB6913434B6022
:100BFC0006E02B4B5A68BB69DB43294913404B6019
:100C0C003B685B6803F48013002B06D0244B9A6876
:100C1C002349BB6913438B6006E0214B9A68BB697F
:100C2C00DB431F4913408B603B685B6803F4001384
:100C3C00002B06D01A4BDA681949BB691343CB60F9
:100C4C0006E0174BDA68BB69DB4315491340CB60F0
:100C5C007B6A01337B623B681A687B6A22FA03F376
:100C6C00002B7FF4AFAE00BF00BF2C37BD4680BC5D
:100C7C00704700BF0000321000003110000022103D
:100C8C000000211000001210000011100010024092
:100C9C000000014000080140000C01400010014020
:100CAC000004014080B483B000AF78600B467B80B9
:100CBC0013467B707B78002B03D07A887B681A6193
:100CCC0003E07B881A047B681A6100BF0C37BD46B1
:100CDC0080BC704780B586B000AF78607B68002B15
:100CEC0001D101236CE27B681B6803F00103002B2C
:100CFC0000F08780924B5B6803F00C03042B0CD044
:100D0C008F4B5B6803F00C03082B12D18C4B5B6888
:100D1C0003F48033B3F5803F0BD1894B1B6803F48C
:100D2C000033002B6CD07B685B68002B68D10123EF
:100D3C0046E27B685B68B3F5803F06D1804B1B684D
:100D4C007F4A43F4803313602EE07B685B68002B92
:100D5C000CD17B4B1B687A4A23F480331360784B9D
:100D6C001B68774A23F4802313601DE07B685B6863
:100D7C00B3F5A02F0CD1724B1B68714A43F480233E
:100D8C0013606F4B1B686E4A43F4803313600BE0A7
:100D9C006B4B1B686A4A23F480331360684B1B68E7
:100DAC00674A23F4802313607B685B68002B13D0A5
:100DBC00FFF7ECFC386108E0FFF7E8FC02463B6902
:100DCC00D31A642B01D90323FAE15D4B1B6803F49E
:100DDC000033002BF0D014E0FFF7D8FC386108E0AA
:100DEC00FFF7D4FC02463B69D31A642B01D90323C9
:100DFC00E6E1534B1B6803F40033002BF0D100E009
:100E0C0000BF7B681B6803F00203002B63D04C4BC4
:100E1C005B6803F00C03002B0BD0494B5B6803F0B1
:100E2C000C03082B1CD1464B5B6803F48033002B5E
:100E3C0016D1434B1B6803F00203002B05D07B68D3
:100E4C001B69012B01D00123BAE13D4B1B6823F038
:100E5C00F8027B685B69DB00394913430B603AE0AD
:100E6C007B681B69002B20D0364B01221A60FFF7E0
:100E7C008DFC386108E0FFF789FC02463B69D31A08
:100E8C00022B01D903239BE12D4B1B6803F00203BA
:100E9C00002BF0D02A4B1B6823F0F8027B685B69AF
:100EAC00DB00274913430B6015E0264B00221A6028
:100EBC00FFF76CFC386108E0FFF768FC02463B6901
:100ECC00D31A022B01D903237AE11D4B1B6803F0C3
:100EDC000203002BF0D17B681B6803F00803002B86
:100EEC003AD07B689B69002B19D0174B01221A60F2
:100EFC00FFF74CFC386108E0FFF748FC02463B6901
:100F0C00D31A022B01D903235AE10D4B5B6A03F070
:100F1C000203002BF0D0012000F0A6FA1CE00A4BD3
:100F2C0000221A60FFF732FC38610FE0FFF72EFC4D
:100F3C0002463B69D31A022B08D9032340E100BFB8
:100F4C000010024000004242800442429E4B5B6A09
:100F5C0003F00203002BE9D17B681B6803F0040348
:100F6C00002B00F0A6800023FB75974BDB6903F088
:100F7C008053002B0DD1944BDB69934A43F0805383
:100F8C00D361914BDB6903F08053BB60BB680123D9
:100F9C00FB758E4B1B6803F48073002B18D18B4BA5
:100FAC001B688A4A43F480731360FFF7EFFB3861C8
:100FBC0008E0FFF7EBFB02463B69D31A642B01D91F
:100FCC000323FDE0814B1B6803F48073002BF0D0EE
:100FDC007B68DB68012B06D17B4B1B6A7A4A43F09A
:100FEC00010313622DE07B68DB68002B0CD1764B80
:100FFC001B6A754A23F001031362734B1B6A724A16
:10100C0023F0040313621CE07B68DB68052B0CD116
:10101C006D4B1B6A6C4A43F0040313626A4B1B6AE8
:10102C00694A43F0010313620BE0674B1B6A664A83
:10103C0023F001031362644B1B6A634A23F004031D
:10104C0013627B68DB68002B15D0FFF79FFB3861C0
:10105C000AE0FFF79BFB02463B69D31A41F2883248
:10106C00934201D90323ABE0574B1B6A03F00203F5
:10107C00002BEED014E0FFF789FB38610AE0FFF794
:10108C0085FB02463B69D31A41F28832934201D95F
:10109C00032395E04C4B1B6A03F00203002BEED1AB
:1010AC00FB7D012B05D1484BDB69474A23F080536C
:1010BC00D3617B68DB69002B00F08180424B5B685D
:1010CC0003F00C03082B61D07B68DB69022B46D143
:1010DC003F4B00221A60FFF759FB386108E0FFF71D
:1010EC0055FB02463B69D31A022B01D9032367E057
:1010FC00354B1B6803F00073002BF0D17B681B6A27
:10110C00B3F5803F08D1304B5B6823F400327B6829
:10111C009B682D4913434B602B4B5B6823F4741273
:10112C007B68196A7B685B6A0B43274913434B60E6
:10113C00274B01221A60FFF729FB386108E0FFF703
:10114C0025FB02463B69D31A022B01D9032337E056
:10115C001D4B1B6803F00073002BF0D02FE01C4BD1
:10116C0000221A60FFF712FB386108E0FFF70EFB54
:10117C0002463B69D31A022B01D9032320E0124B00
:10118C001B6803F00073002BF0D118E07B68DB695F
:10119C00012B01D1012313E00B4B5B68FB60FB6857
:1011AC0003F480327B681B6A9A4206D1FB6803F415
:1011BC0070127B685B6A9A4201D0012300E0002325
:1011CC0018461837BD4680BD001002400070004024
:1011DC006000424280B584B000AF786039607B68B3
:1011EC00002B01D10123D0E06A4B1B6803F00703ED
:1011FC003A689A4210D9674B1B6823F0070265497D
:10120C003B6813430B60634B1B6803F007033A689E
:10121C009A4201D00123B8E07B681B6803F00203FB
:10122C00002B20D07B681B6803F00403002B05D037
:10123C00594B5B68584A43F4E06353607B681B6806
:10124C0003F00803002B05D0534B5B68524A43F460
:10125C0060535360504B5B6823F0F0027B689B68D3
:10126C004D4913434B607B681B6803F00103002B53
:10127C0040D07B685B68012B07D1474B1B6803F49C
:10128C000033002B15D101237FE07B685B68022BB8
:10129C0007D1414B1B6803F00073002B09D10123CC
:1012AC0073E03D4B1B6803F00203002B01D10123BB
:1012BC006BE0394B5B6823F003027B685B68364953
:1012CC0013434B60FFF762FAF8600AE0FFF75EFA2F
:1012DC000246FB68D31A41F28832934201D90323A8
:1012EC0053E02D4B5B6803F00C027B685B689B0042
:1012FC009A42EBD1274B1B6803F007033A689A42DA
:10130C0010D2244B1B6823F0070222493B6813437D
:10131C000B60204B1B6803F007033A689A4201D01C
:10132C00012332E07B681B6803F00403002B08D018
:10133C00194B5B6823F4E0627B68DB681649134346
:10134C004B607B681B6803F00803002B09D0124B21
:10135C005B6823F460527B681B69DB000E49134306
:10136C004B6000F021F802460B4B5B681B0903F045
:10137C000F030A49CB5C22FA03F3094A1360094BA9
:10138C001B681846FFF7C0F9002318461037BD46F6
:10139C0080BD00BF00200240001002405425000810
:1013AC00000000200400002090B48AB000AF2A4B4B
:1013BC003C1D0FCB84E80F0040F201233B8000233F
:1013CC00FB610023BB6100237B6200237B61002354
:1013DC003B62224B5B68FB61FB6903F00C03042B43
:1013EC0002D0082B03D02DE01D4B3B622DE0FB6996
:1013FC009B0C03F00F0307F12802134413F8243C51
:10140C007B61FB6903F48033002B13D0134B5B68B7
:10141C005B0C03F0010307F12802134413F8283C7A
:10142C00BB617B690E4A02FB03F2BB69B2FBF3F3AF
:10143C007B6204E07B690B4A02FB03F37B627B6AF1
:10144C003B6202E0064B3B6200BF3B6A1846283702
:10145C00BD4690BC704700BF4425000800100240F8
:10146C0000127A0000093D0080B485B000AF7860AE
:10147C000A4B1B680A4AA2FB03235B0A7A6802FB2D
:10148C0003F3FB6000BFFB685A1EFA60002BF9D116
:10149C0000BF00BF1437BD4680BC70470000002061
:1014AC00D34D6210014B1868704700BF0C00002030
:1014BC0070B500260C4D0D4C641BA410A64209D12E
:1014CC0001F02EF800260A4D0A4C641BA410A6420B
:1014DC0005D170BD55F8043B98470136EEE755F839
:1014EC00043B98470136F2E7B0260008B026000806
:1014FC00B0260008B426000803460244934200D1EB
:10150C00704703F8011BF9E7174B10B51C68A36B68
:10151C00B3B9182000F068F80246A06320B94E2138
:10152C00124B134800F030F81249134BC0E900136A
:10153C00124B002183600B2383810120C2E904013B
:10154C00A16B0F480A694B6950430E4C04FB030016
:10155C00A2FB04345A1C044444F10000C1E90420E9
:10156C0020F0004010BD00BF0C00002068250008D2
:10157C007F2500080E33CDAB34126DE6ECDE050092
:10158C002DF451582D7F954C1FB514461A46094B16
:10159C0005461B68D8684CB1074BCDE90134009166
:1015AC002B46064900F00EF800F08AFC044B1C4652
:1015BC00F3E700BF0C000020DE250008EB25000837
:1015CC00192600080EB403B5014603AB054853F8C1
:1015DC00042B0068019300F0DDF802B05DF804EB19
:1015EC0003B070470C000020024B0146186800F055
:1015FC004FB800BF0C00002038B50546002943D079
:10160C0051F8043C0C1F002BB8BFE41800F08CFE02
:10161C001E4A1368104633B9636014602846BDE84F
:10162C00384000F087BEA3420AD921686218934261
:10163C0001BF1A685B685218226063600460EDE7B2
:10164C001A465B680BB1A342FAD911685018A04234
:10165C000BD120680144501883421160DED1186808
:10166C005B68014411605360D8E702D90C232B60EE
:10167C00D4E7206821188B4201BF19685B680918F0
:10168C00216063605460C9E738BD00BF9000002042
:10169C00F8B5CD1C25F0030508350C2D38BF0C25ED
:1016AC00002D064601DBA94203D90C233360002030
:1016BC00F8BD00F039FE21490A6814469CB9204F48
:1016CC003B6823B92146304600F02AFB3860294696
:1016DC00304600F025FB431C23D10C2330463360ED
:1016EC0000F028FEE3E723685B1B17D40B2B03D910
:1016FC0023601C44256004E06368A2420CBF0B60AD
:10170C005360304600F016FE04F10B00231D20F050
:10171C000700C21ACCD01B1AA350C9E72246646832
:10172C00CCE7C41C24F00304A042E3D0211A3046B9
:10173C0000F0F6FA0130DDD1CFE700BF90000020B9
:10174C0094000020936810B4013B002B936007DADF
:10175C009469A34201DB0A2902D110BC00F0F0BA53
:10176C001368581C10601970084610BC7047F8B507
:10177C0006460F461446D518AC4201D1002007E0AE
:10178C003A46304614F8011BFFF7DCFF431CF3D13B
:10179C00F8BD00002DE9F04F0D461446984606465C
:1017AC009DB018B183690BB900F0ACFC894B9D421C
:1017BC001BD175686B6ED90705D4AB899A0502D419
:1017CC00A86D00F03DFDAB891B0701D52B69EBB96A
:1017DC002946304600F006FBC0B16B6EDC070ED517
:1017EC004FF0FF301DB0BDE8F08F7B4B9D4201D117
:1017FC00B568DFE7794B9D4208BFF568DAE7AB893E
:10180C009805EDD4A86D00F01CFDE9E700230993C1
:10181C0020238DF8293030234FF00109CDF80C80AE
:10182C00DFF8BC818DF82A3023469A4613F8012B39
:10183C000AB1252AF9D1BAEB040B0BD05B46224630
:10184C0029463046FFF793FF013000F0AA80099A31
:10185C005A4409929AF80030002B00F0A280002321
:10186C004FF0FF32CDE905230AF1010A04930793E7
:10187C008DF853301A935446052214F8011B58481E
:10188C0000F044FD049AD8B9D10644BF20238DF84A
:10189C005330130744BF2B238DF853309AF8003084
:1018AC002A2B15D0544600204FF00A0C079A2146DB
:1018BC0011F8013B303B092B4ED9B0B1079214E023
:1018CC00A0EB080309FA03F31343A2460493D2E7EF
:1018DC00039B191D1B680391002BBBBF5B4242F09D
:1018EC00020207930793B8BF049223782E2B0CD1D6
:1018FC0063782A2B35D1039B02341A1D1B68039283
:10190C00002BB8BF4FF0FF330593DFF8E4A00322A0
:10191C005046217800F0FAFC40B14023A0EB0A00BD
:10192C0003FA00F0049B01340343049314F8011BE5
:10193C0006222C488DF8281000F0E8FC00283FD037
:10194C00294B1BBB039B073323F00703083303937B
:10195C00099B3B44099367E70C4601200CFB0232C0
:10196C00A5E700234FF00A0C1946013405932046D5
:10197C0010F8012B303A092A03D9002BC5D0059158
:10198C00C3E7044601230CFB0121F0E703AB0093F2
:10199C002A463046154B04A9AFF300800746781C45
:1019AC00D6D16B6ED90705D4AB899A0502D4A86D34
:1019BC0000F047FCAB895B063FF512AF099811E7C5
:1019CC0003AB00932A463046084B04A900F082F87A
:1019DC00E4E700BF70260008902600085026000897
:1019EC001A26000824260008000000007B170008B7
:1019FC00202600082DE9F047164699468A680B699F
:101A0C0007469342B8BF1346336091F843200C4607
:101A1C00DDF820800AB1013333602368990642BF98
:101A2C00336802333360256815F0060506D104F1DE
:101A3C00190AE36832689B1AAB4228DC94F84320FD
:101A4C00131E226818BF012392062DD4494638462E
:101A5C0004F14302C047013020D02368E56803F04D
:101A6C000603042B18BF002532684FF00006A3684C
:101A7C0008BFAD1A226908BF25EAE5759342C4BFB9
:101A8C009B1AED181A34B5421AD1002008E0012334
:101A9C00524649463846C047013003D14FF0FF301B
:101AAC00BDE8F0870135C4E73020E11881F8430028
:101ABC005A1C94F845102244023382F84310C5E7AF
:101ACC000123224649463846C0470130E6D001364C
:101ADC00D9E700002DE9FF470C46277E9146782F69
:101AEC0080469A460C9904F1430207D8622F0AD813
:101AFC00002F00F0D980582F00F0A48004F142068A
:101B0C0084F842703AE0A7F16303152BF6D801A0D4
:101B1C0050F823F0791B00088D1B0008091B0008E6
:101B2C00091B0008091B0008091B00088D1B000875
:101B3C00091B0008091B0008091B0008091B0008E9
:101B4C009B1C0008BD1B00087D1C0008091B00081D
:101B5C00091B0008BD1C0008091B0008BD1B000860
:101B6C00091B0008091B0008851C00080B6804F100
:101B7C0042061A1D1B680A6084F842300123A4E057
:101B8C00256808682E0600F104030AD505680B6069
:101B9C00002D03DA2D236D4284F843300A235E486E
:101BAC0019E015F0400F05680B6018BF2DB2EFE778
:101BBC000B682568181D0860280601D51D6802E011
:101BCC006906FBD51D886F2F0CBF08230A235248CA
:101BDC00002184F843106668002EA8BF2168A66017
:101BEC00A4BF21F0040121600DB9002E4DD0164682
:101BFC00B5FBF3F103FB1157C75D06F8017D2F46CA
:101C0C00BB420D46F4D9082B0BD12368DF0708D54E
:101C1C00236961689942DEBF302306F8013C06F166
:101C2C00FF36921B22614B4621464046CDF800A060
:101C3C0003AAFFF7DFFE01304CD14FF0FF3004B0A8
:101C4C00BDE8F087344884F845700E68236856F870
:101C5C00045B1F060E6014D5D90744BF43F0200364
:101C6C0023601DB9236823F0200323601023AFE702
:101C7C00236843F0200323607823284884F84530F8
:101C8C00E3E75E0648BFADB2E6E71646BBE70B6876
:101C9C0026681D1D60690D6035061B6801D518602E
:101CAC0002E07106FBD51880002316462361BAE7C3
:101CBC000B681A1D0A601E6800213046626800F02D
:101CCC0025FB08B1801B606063682361002384F8E6
:101CDC004330A8E73246494640462369D047013095
:101CEC00ABD023689B0713D4E068039B9842B8BF22
:101CFC001846A4E70123324649464046D0470130F6
:101D0C009BD00135E36803995B1AAB42F2DCEBE73D
:101D1C00002504F11906F5E72B2600083C260008DF
:101D2C0038B50023054D044608462B60FEF774FCBD
:101D3C00431C02D12B6803B1236038BDA8000020DE
:101D4C00F8B50E461446054618B183690BB900F078
:101D5C00D9F9214B9C422BD16C68A369A360A38950
:101D6C001A072FD523696BB323692068F6B2C01A02
:101D7C0063693746834204DC2146284600F02EF97D
:101D8C0030BBA3680130013BA36023685A1C22605E
:101D9C001E706369834204D0A389DB0706D50A2E23
:101DAC0004D12146284600F019F988B93846F8BD07
:101DBC000A4B9C4201D1AC68CFE7094B9C4208BF4F
:101DCC00EC68CAE72146284600F00CF80028CBD076
:101DDC004FF0FF37EAE700BF702600089026000896
:101DEC0050260008324B70B51D6806460C4625B1CE
:101DFC00AB6913B9284600F085F92E4B9C420FD1E4
:101E0C006C68A389B4F90C2019072CD4DD0611D405
:101E1C000923336042F040034FF0FF30A3813EE0D2
:101E2C00254B9C4201D1AC68EBE7244B9C4208BF8C
:101E3C00EC68E6E7580712D5616B41B104F1440335
:101E4C00994202D03046FFF7D7FB00236363A38986
:101E5C0023F02403A3810023636023692360A389F7
:101E6C0043F00803A38123694BB9A38903F42073BE
:101E7C00B3F5007F03D02146304600F007FAA08965
:101E8C00B4F90C2010F001030AD00023A36063699D
:101E9C005B42A361236943B910F08000BAD170BDD5
:101EAC00810758BF6369A360F4E70020F7E700BF20
:101EBC000C00002070260008902600085026000810
:101ECC00062008B500F064FA0120FEF731FB000093
:101EDC008A892DE9F041054610070C4658D44B6809
:101EEC00002B05DC0B6C002B02DC0020BDE8F08124
:101EFC00E66A002EF9D0002312F480522F682B6072
:101F0C0032D0606DA3895A0705D56368C01A636B1C
:101F1C000BB1236CC01A00230246E66A2846216ADC
:101F2C00B047431CA38906D129681D292CD82A4AFD
:101F3C00CA40D60728D5002262602269D9042260E3
:101F4C0004D5421C01D12B6803B96065616B2F600D
:101F5C000029CAD004F14403994202D02846FFF765
:101F6C004BFB00206063C1E7216A01232846B04780
:101F7C00411CC7D12B68002BC4D01D2B01D0162BB4
:101F8C0001D12F60B1E7A38943F04003A381ADE7F2
:101F9C000F69002FA9D0930718BF00230E6808BF44
:101FAC004B69A6EB07080F608B60B8F1000F9CDD46
:101FBC0043463A462846216AA66AB047002806DC02
:101FCC00A3894FF0FF3043F04003A3818EE7074411
:101FDC00A8EB0008E9E700BF0100402038B50B6909
:101FEC0005460C4613B90025284638BD18B183693F
:101FFC000BB900F087F8144B9C421BD16C68B4F9F8
:10200C000C30002BEFD0626ED00704D4990502D4AB
:10201C00A06D00F015F928462146FFF759FF636EB5
:10202C000546DA07E0D4A3899B05DDD4A06D00F04A
:10203C0008F9D9E7054B9C4201D1AC68DFE7044BAA
:10204C009C4208BFEC68DAE770260008902600086E
:10205C0050260008002310B50446C0E90033C0E93F
:10206C000433836081814366C281836119460822EF
:10207C005C30FFF741FA054B24626362044BA362A8
:10208C00044BE362044B236310BD00BFD52300084F
:10209C00F72300082F24000853240008014900F0FE
:1020AC00AFB800BFE91F000870B568254A1E55433C
:1020BC000E4605F17401FFF7EBFA044640B100211E
:1020CC00C0E900160C30A06005F16802FFF714FAA5
:1020DC00204670BD014800F0B3B800BFA40000203A
:1020EC00014800F0AEB800BFA4000020014800F089
:1020FC00A7B800BF9F000020014800F0A2B800BFA5
:10210C009F00002010B50446FFF7F0FFA3691BB138
:10211C00BDE81040FFF7F0BFC4E912332365134B41
:10212C00134A1B68A262A34208BF0123204608BFC2
:10213C00A36100F01FF86060204600F01BF8A0605F
:10214C00204600F017F800220421E0606068FFF7D9
:10215C0081FF01220921A068FFF77CFF02221221D6
:10216C00E068FFF777FF0123A361D1E7642500083E
:10217C00A9200008F8B50746FFF7ACFF1E4B1E68F8
:10218C00B36913B93046FFF7BDFF4836D6E90134C1
:10219C00013B03D533680BB33668F7E7B4F90C5041
:1021AC00D5B9164B04F15800E360656600F047F8AA
:1021BC00FFF796FF08222946C4E90155C4E90455E6
:1021CC002560A56104F15C00FFF796F9C4E90D5593
:1021DC00C4E912552046F8BD6834D9E704213846C5
:1021EC00FFF762FF044630600028D5D1FFF778FF77
:1021FC000C233B60EEE700BF642500080100FFFFE5
:10220C002DE9F84306468846002700F14804D4E936
:10221C000195B9F1010905D52468002CF7D1384690
:10222C00BDE8F883AB89012B07D9B5F90E30013322
:10223C0003D029463046C04707436835E9E7704765
:10224C007047704770B50E46B1F90E101446002950
:10225C001D4696B007DA00232B60B3891A0610D4FA
:10226C004FF480630EE06A4600F014F90028F2DBAC
:10227C00019A02F47042A2F500535A425A412A6064
:10228C00EEE740230020236016B070BD8B8973B538
:10229C009D0706460C4607D504F1470323602361CE
:1022AC000123636102B070BD6A4601ABFFF7CAFF40
:1022BC00009905463046FFF7EBF948B9B4F90C30F4
:1022CC009A05EFD423F0030343F00203A381E3E761
:1022DC000D4BB362A389206043F08003A381009B64
:1022EC0020616361019B5BB13046B4F90E1000F0C4
:1022FC00E3F828B1A38923F0030343F00103A3817E
:10230C00A0890543A581CDE7A9200008034610B597
:10231C00C9B202449342184601D1002003E004786C
:10232C0001338C42F6D110BD0148FFF789BF00BFC5
:10233C00A00000200148FFF784BF00BFA0000020D0
:10234C001F2938B504460D4604D9162303604FF0F7
:10235C00FF3038BD426C12B152F821304BB92046D7
:10236C0000F030F82A4601462046BDE8384000F01F
:10237C0017B8012B0AD0591C03D116230360012076
:10238C00E7E70024284642F8254098470020E0E77C
:10239C00024B01461868FFF7D3BF00BF0C000020AA
:1023AC0038B50023064D0446084611462B60FEF74F
:1023BC00AFF8431C02D12B6803B1236038BD00BFBA
:1023CC00A8000020FEF79DB810B50C46B1F90E1010
:1023DC0000F094F80028ABBF636DA3891B1823F49D
:1023EC008053ACBF6365A38110BD2DE9F0411F463E
:1023FC008B890546DB050C46164605D502230022C3
:10240C00B1F90E1000F068F8A389324623F480531A
:10241C00A38128463B46B4F90E10BDE8F04100F00C
:10242C0017B810B50C46B1F90E1000F055F8431C56
:10243C00A38915BF606523F4805343F48053A381B3
:10244C0018BFA38110BDB1F90E1000F013B8000035
:10245C0038B50446084611460022054D2A601A4636
:10246C00FEF78DF8431C02D12B6803B1236038BDF5
:10247C00A800002038B50023054D044608462B6003
:10248C00FEF799F8431C02D12B6803B1236038BDC9
:10249C00A800002038B50023064D04460846114616
:1024AC002B60FEF793F8431C02D12B6803B1236019
:1024BC0038BD00BFA800002038B50023054D0446E8
:1024CC0008462B60FEF791F8431C02D12B6803B130
:1024DC00236038BDA800002038B5044608461146D4
:1024EC000022054D2A601A46FEF789F8431C02D1DA
:1024FC002B6803B1236038BDA800002038B5044612
:10250C00084611460022054D2A601A46FEF71AF8B5
:10251C00431C02D12B6803B1236038BDA8000020F6
:10252C00F8B500BFF8BC08BC9E467047F8B500BFB4
:08253C00F8BC08BC9E46704784
:1025440002030405060708090A0B0C0D0E0F1010F0
:10255400000000000000000001020304060708094F
:10256400100000205245454E54206D616C6C6F6321
:1025740020737563636565646564002F6275696CB7
:10258400642F676E752D746F6F6C732D666F722D6B
:1025940073746D33325F392D323032302D71322DF8
:1025A4007570646174652E32303230313030312DC3
:1025B400313632312F7372632F6E65776C69622FF7
:1025C4006E65776C69622F6C6962632F7374646CD7
:1025D40069622F72616E642E63002C2066756E63CF
:1025E40074696F6E3A2000617373657274696F6EFB
:1025F4002022257322206661696C65643A2066692D
:102604006C6520222573222C206C696E652025645C
:10261400257325730A00232D302B2000686C4C0091
:1026240065666745464700303132333435363738CE
:10263400394142434445460030313233343536372C
:1026440038396162636465660000000000000000C0
:102654000000000000000000000000000000000076
:102664000000000000000000000000000000000066
:102674000000000000000000000000000000000056
:102684000000000000000000000000000000000046
:102694000000000000000000000000000000000036
:0C26A4000000000000000000000000002A
:0426B00031010008EC
:0426B4000D0100080C
:1026B8000024F400100000000100000010000020B9
:1026C8000000000070260008902600085026000828
:1026D80000000000000000000000000000000000F2
:1026E80000000000000000000000000000000000E2
:1026F80000000000000000000000000000000000D2
:1027080000000000000000000000000000000000C1
:1027180000000000000000000000000000000000B1
:040000050800069D4C
:00000001FF
